:100000000C9430000C94D6010C94D6010C94D601BB
:100010000C94D6010C94D6010C94D6010C94D60104
:100020000C94D6010C94D6010C94D6010C94D601F4
:100030000C94D6010C94D6010C94D6010C94D601E4
:100040000C94D6010C94D6010C94D6010C94D601D4
:100050000C94D6010060006580006500760003B056
:1000600011241FBECFE5D4E0DEBFCDBFE4E5F0E054
:1000700040E017C0B591A59135912591059107FDF7
:100080000CC095918591EF01F92FE82F05900D9205
:10009000A217B307D9F7FE0104C01D92A217B30738
:1000A000E1F7E036F40731F70E9491010C94580013
:0400B000F894FFCFF2
:1000B400E5E6F0E02FE630E0813099F028F0823078
:1000C400E9F0833041F133C0908195BB92B39867D6
:1000D40092BBA1EEB4E01197F1F700C00000939831
:1000E40026C0908195BB92B3986792BBA1EEB4E011
:1000F4001197F1F700C00000949819C0908195BB46
:1001040092B3986792BBA1EEB4E01197F1F700C0E7
:10011400000095980CC0908195BB92B3986792BBF0
:10012400A1EEB4E01197F1F700C000009698AFE497
:10013400B3EC1197F1F700C000003196E217F30712
:0601440009F0BACF089596
:10014A00EFE6F0E026E730E0813099F028F08230DF
:10015A00E9F0833041F133C0908195BB92B398673F
:10016A0092BBA1EEB4E01197F1F700C0000093989A
:10017A0026C0908195BB92B3986792BBA1EEB4E07A
:10018A001197F1F700C00000949819C0908195BBAF
:10019A0092B3986792BBA1EEB4E01197F1F700C051
:1001AA00000095980CC0908195BB92B3986792BB5A
:1001BA00A1EEB4E01197F1F700C000009698AFE401
:1001CA00B3EC1197F1F700C000003196E217F3077C
:0601DA0009F0BACF089500
:1001E000CF930E94C001C82F882349F00E94CC0100
:1001F000811125C00E94C601811111C025C00E9435
:10020000C6018823B1F00E94CC0181110AC0CC2321
:1002100051F083E019C0CC2341F083E015C083E0A6
:1002200013C083E011C081E00FC082E00DC083E005
:100230000BC00E94CC018111EECF83E005C00E946B
:0C024000C6018823B1F3F3CFCF910895DD
:10024C00962F813031F0A0F0823041F0833059F09C
:10025C00089561E0892F0E944301089562E0892F7F
:10026C000E944301089563E0892F0E944301089581
:0A027C0060E0892F0E9443010895FD
:10028600982F862F913071F028F0923039F0933004
:1002960061F00895842F0E94A0010895842F0E9482
:1002A600A90108950E94B20108958FE385BB1092BB
:0602B600600080E00895E5
:1002BC00FF920F931F93CF93DF93F62E042F10E032
:1002CC001016110654F4C0E0D0E04C2F6F2D0E9494
:1002DC0026012196C017D107C1F7DF91CF911F914D
:0602EC000F91FF90089540
:1002F200A09AA19AA29AA39AA49AA59AA69AA79A10
:1003020087B387BB87B387BB87B387BB889A899A32
:100312008A9A8B9A8C9A8D9A8E9A8FE385BB0895CE
:100322000E9479010E94BA01C82F0E94D2010E9444
:0E033200F00043E0682F8C2F0E945E01F6CF92
:100340009298909A91980E945A0081E0809362005E
:0203500008950E
:1003520092989098919A0E94A50082E08093620000
:020362000895FC
:10036400929A9098919884E08093620083E0089533
:0C0374008FE385BB1092600080E00895CC
:0C0380009091600081E090FF80E0089503
:0C038C009091600081E092FF80E00895F5
:0C0398009091600081E091FF80E00895EA
:0803A40086B380936000089508
:0403AC000C940000AD
:0A03B0003F065B4F666D7D077F6F0F
:0703BA0001020408102040BD
:00000001FF
